{
    "contractName": "CryptoDoggies",
    "abi": [
        {
            "inputs": [],
            "stateMutability": "payable",
            "type": "constructor"
        },
        {
            "anonymous": false,
            "inputs": [
                {
                    "indexed": false,
                    "internalType": "uint16",
                    "name": "doggy",
                    "type": "uint16"
                },
                {
                    "indexed": false,
                    "internalType": "address",
                    "name": "owner",
                    "type": "address"
                }
            ],
            "name": "newDoggyEvent",
            "type": "event"
        },
        {
            "anonymous": false,
            "inputs": [
                {
                    "indexed": false,
                    "internalType": "uint16",
                    "name": "doggy",
                    "type": "uint16"
                },
                {
                    "indexed": false,
                    "internalType": "address",
                    "name": "old_owner",
                    "type": "address"
                },
                {
                    "indexed": false,
                    "internalType": "address",
                    "name": "new_owner",
                    "type": "address"
                }
            ],
            "name": "transferDoggyEvent",
            "type": "event"
        },
        {
            "inputs": [
                {
                    "internalType": "uint16",
                    "name": "my_doggy",
                    "type": "uint16"
                },
                {
                    "internalType": "uint16",
                    "name": "other_doggy",
                    "type": "uint16"
                }
            ],
            "name": "breedDoggy",
            "outputs": [],
            "stateMutability": "payable",
            "type": "function"
        },
        {
            "inputs": [
                {
                    "internalType": "uint16",
                    "name": "doggy",
                    "type": "uint16"
                }
            ],
            "name": "buyDoggy",
            "outputs": [],
            "stateMutability": "payable",
            "type": "function"
        },
        {
            "inputs": [],
            "name": "createNewDoggy",
            "outputs": [],
            "stateMutability": "payable",
            "type": "function"
        },
        {
            "inputs": [
                {
                    "internalType": "uint16",
                    "name": "my_former_doggy",
                    "type": "uint16"
                }
            ],
            "name": "receiveMoney",
            "outputs": [],
            "stateMutability": "nonpayable",
            "type": "function"
        },
        {
            "inputs": [],
            "name": "reclaimFees",
            "outputs": [],
            "stateMutability": "nonpayable",
            "type": "function"
        },
        {
            "inputs": [
                {
                    "internalType": "uint16",
                    "name": "my_doggy",
                    "type": "uint16"
                },
                {
                    "internalType": "uint256",
                    "name": "asking_price",
                    "type": "uint256"
                }
            ],
            "name": "sellDoggy",
            "outputs": [],
            "stateMutability": "nonpayable",
            "type": "function"
        },
        {
            "inputs": [],
            "name": "unlock_seed",
            "outputs": [],
            "stateMutability": "nonpayable",
            "type": "function"
        }
    ],
    "bytecode": "6080604052674563918244f40000600881905560098054600160a01b600160e01b0319166503782dace9d960b21b179055600a80546001600160c01b03191677016345785d8a0000016345785d8a00000de0b6b3a7640000179055341461006557600080fd5b60008054336001600160a01b03199182168117835560098054909216179055610b3290819061009490396000f3fe6080604052600436106100705760003560e01c806368a893241161004e57806368a89324146100ba5780638ef6fe09146100c2578063c77092e1146100d5578063d78a5395146100f557600080fd5b80632f8b4b7d1461007557806351dc8076146100855780635d3b8f6c146100a5575b600080fd5b34801561008157600080fd5b505b005b34801561009157600080fd5b506100836100a03660046107f0565b610108565b3480156100b157600080fd5b50610083610190565b6100836101cd565b6100836100d03660046107f0565b6103ba565b3480156100e157600080fd5b506100836100f036600461080b565b610499565b610083610103366004610835565b6104d8565b61ffff81166000908152600360205260409020546001600160a01b0316331461013057600080fd5b61ffff811660009081526007602052604080822054905133928392919081818185875af1925050503d8060008114610184576040519150601f19603f3d011682016040523d82523d6000602084013e610189565b606091505b5050505050565b600080546040516001600160a01b03909116914780156108fc02929091818181858888f193505050501580156101ca573d6000803e3d6000fd5b50565b600954600160a01b900467ffffffffffffffff1634116101ec57600080fd5b60005b6001548110156102e0576102056103e84361087e565b600460006001848154811061021c5761021c610895565b90600052602060002090601091828204019190066002029054906101000a900461ffff1661ffff1661ffff16815260200190815260200160002054106102d0576102673460646108ab565b600560006001848154811061027e5761027e610895565b90600052602060002090601091828204019190066002029054906101000a900461ffff1661ffff1661ffff1681526020019081526020016000205460656102c591906108ab565b11156102d057600080fd5b6102d9816108ca565b90506101ef565b5060006102eb6106ea565b60018054808201909155601081047fb10e2d527612073b26eecdfd717e6a320cf44b4afac2b0732d9fcbe2b7fa0cf601805461ffff8481166002600f90951685026101000a8181029202199092161790915560008181526020838152604080832080546001600160a01b03191632178155600483528184204390556005835292819020349055938152905483519283526001600160a01b0316908201529192507f452631f4853f981731b3a0c121fb796b551789f655261f6a3a9553d5b0b7831091015b60405180910390a150565b61ffff81166000908152600760205260409020546103d757600080fd5b600a5461ffff821660009081526007602052604090205461040991600160801b900467ffffffffffffffff16906108e3565b341461041457600080fd5b61ffff811660008181526002602081815260408084208054600384529482902080546001600160a01b039687166001600160a01b0319918216178255825433911681179092555493835281519586529290931690840152908201527f827aa3f2ce063103a1133fdbfb78161c86ee9366a49de5731c0cca64fc8c3bea906060016103af565b61ffff82166000908152600260205260409020546001600160a01b031633146104c157600080fd5b61ffff909116600090815260076020526040902055565b600a5467ffffffffffffffff163410156104f157600080fd5b61ffff82166000908152600260205260409020546001600160a01b0316331461051957600080fd5b61ffff828116600081815260066020526040808220805461ffff19168686169081179091558252902054909116036106e65760006105578383610705565b905060006105658484610705565b6001805480820182557fb10e2d527612073b26eecdfd717e6a320cf44b4afac2b0732d9fcbe2b7fa0cf6601080830482018054600f948516600290810261010090810a61ffff818102199094168c8516918202179094558754808901909855938704909401805496909516840290920a80830219909516868316958602179093558881166000908152602083815260408083205486845281842080546001600160a01b039283166001600160a01b0319918216178255958d168552828520549885528285208054998316999096169890981790945560048252808320439081905586845292819020929092559283529354845193845216908201529192507f452631f4853f981731b3a0c121fb796b551789f655261f6a3a9553d5b0b78310910160405180910390a161ffff81166000818152600260209081526040918290205482519384526001600160a01b0316908301527f452631f4853f981731b3a0c121fb796b551789f655261f6a3a9553d5b0b78310910160405180910390a150505b5050565b600043403a18816106fe6201000083610911565b9392505050565b6000806107106106ea565b90506000805b60108161ffff1610156107ce5761072e600284610925565b61ffff1660010361076a57610744816002610a4f565b61074f600288610925565b6107599190610a6a565b6107639083610a94565b9150610797565b610775816002610a4f565b610780600287610925565b61078a9190610a6a565b6107949083610a94565b91505b6107a2600284610aba565b92506107af600287610aba565b95506107bc600286610aba565b94506107c781610adb565b9050610716565b509150505b92915050565b803561ffff811681146107eb57600080fd5b919050565b60006020828403121561080257600080fd5b6106fe826107d9565b6000806040838503121561081e57600080fd5b610827836107d9565b946020939093013593505050565b6000806040838503121561084857600080fd5b610851836107d9565b915061085f602084016107d9565b90509250929050565b634e487b7160e01b600052601160045260246000fd5b60008282101561089057610890610868565b500390565b634e487b7160e01b600052603260045260246000fd5b60008160001904831182151516156108c5576108c5610868565b500290565b6000600182016108dc576108dc610868565b5060010190565b600082198211156108f6576108f6610868565b500190565b634e487b7160e01b600052601260045260246000fd5b600082610920576109206108fb565b500690565b600061ffff8084168061093a5761093a6108fb565b92169190910692915050565b600181815b80851115610981578161ffff0482111561096757610967610868565b8085161561097457918102915b93841c939080029061094b565b509250929050565b600082610998575060016107d3565b816109a5575060006107d3565b81600181146109bb57600281146109c5576109f4565b60019150506107d3565b60ff8411156109d6576109d6610868565b6001841b915061ffff8211156109ee576109ee610868565b506107d3565b5060208310610133831016604e8410600b8410161715610a29575081810a61ffff811115610a2457610a24610868565b6107d3565b610a338383610946565b8061ffff04821115610a4757610a47610868565b029392505050565b600061ffff610a62818516828516610989565b949350505050565b600061ffff80831681851681830481118215151615610a8b57610a8b610868565b02949350505050565b600061ffff808316818516808303821115610ab157610ab1610868565b01949350505050565b600061ffff80841680610acf57610acf6108fb565b92169190910492915050565b600061ffff808316818103610af257610af2610868565b600101939250505056fea264697066735822122050da9f40529e3f8a9ed007cea5b143d711c48158666d51cc8dc5f64fd32a058664736f6c634300080d0033",
    "sourcePath": "/Users/hangyulson/OneDrive - HKUST Connect/University/University 3-2/COMP4901W/Homework/hw6/CryptoDoggies.sol",
    "compiler": {
        "name": "solc",
        "version": "0.8.13+commit.abaa5c0e"
    },
    "functionHashes": {
        "breedDoggy(uint16,uint16)": "d78a5395",
        "buyDoggy(uint16)": "8ef6fe09",
        "createNewDoggy()": "68a89324",
        "receiveMoney(uint16)": "51dc8076",
        "reclaimFees()": "5d3b8f6c",
        "sellDoggy(uint16,uint256)": "c77092e1",
        "unlock_seed()": "2f8b4b7d"
    },
    "gasEstimates": {
        "creation": {
            "codeDepositCost": "573200",
            "executionCost": "119668",
            "totalCost": "692868"
        },
        "external": {
            "breedDoggy(uint16,uint16)": "infinite",
            "buyDoggy(uint16)": "61340",
            "createNewDoggy()": "infinite",
            "receiveMoney(uint16)": "infinite",
            "reclaimFees()": "infinite",
            "sellDoggy(uint16,uint256)": "24751",
            "unlock_seed()": "124"
        },
        "internal": {
            "random_offspring(uint16,uint16)": "infinite",
            "random_uint16()": "114"
        }
    }
}